:020000040800F2
:1000000000000120B52E0008191000081B10000880
:100010001D1000081F10000821100008000000003B
:100020000000000000000000000000002310000895
:100030002510000800000000271000082910000803
:10004000052F0008052F0008052F0008052F0008C0
:10005000052F0008052F0008052F0008052F0008B0
:10006000052F0008052F0008052F0008052F0008A0
:10007000052F0008052F0008052F0008052F000890
:10008000052F0008052F0008052F0008052F000880
:10009000052F0008052F0008052F0008052F000870
:1000A000052F0008052F0008052F0008052F000860
:1000B000052F00080000000000000000052F0008C8
:1000C000052F00080000000000000000052F0008B8
:1000D00000000000052F0008052F000800000000A8
:1000E00031100008052F000800000000000000008B
:1000F0000000000000000000000000000000000000
:10010000000000000000000000000000052F0008B3
:100110000000000000000000052F0008052F000867
:10012000052F0008052F0008052F0008052F0008DF
:10013000052F000800000000000000000000000083
:10014000052F0008052F0008052F0008052F0008BF
:10015000052F0008052F0008052F0008052F0008AF
:10016000052F0008052F0008052F000800000000DB
:10017000052F0008052F0008000000000000000007
:10018000052F0008052F0008052F000800000000BB
:1001900010B5054C237833B9044B13B10448AFF3C1
:1001A00000800123237010BD7000002000000000BB
:1001B0004C31000808B5034B1BB103490348AFF3AA
:1001C000008008BD00000000740000204C310008D1
:1001D00053B94AB9002908BF00281CBF4FF0FF31AE
:1001E0004FF0FF3000F072B9ADF1080C6DE904CEAC
:1001F00000F006F8DDF804E0DDE9022304B0704702
:100200002DE9F047089E04468846002B4BD18A42D0
:10021000154667D9B2FA82F24AB1C2F1200701FA53
:1002200002F320FA07F7954047EA030894404FEAA3
:10023000154E230CB8FBFEF71FFA85FC0EFB178842
:1002400043EA084307FB0CF1994209D9EB1807F17F
:10025000FF3080F01B81994240F21881023F2B440D
:100260005B1AA4B2B3FBFEF00EFB103344EA034466
:1002700000FB0CFCA44509D92C1900F1FF3380F0D8
:100280000781A44540F2048102382C4440EA07402B
:10029000A4EB0C0400271EB1D4400023C6E90043A0
:1002A0003946BDE8F0878B4209D9002E00F0EB807B
:1002B0000027C6E9000138463946BDE8F087B3FAA1
:1002C00083F7002F47D18B4202D3824200F2FA809B
:1002D000841A61EB030301209846002EE0D0C6E9A2
:1002E0000048DDE702B9FFDEB2FA82F2002A40F0F0
:1002F0008F80491B4FEA154E1FFA85F80127B1FB85
:10030000FEFC230C0EFB1C1143EA014308FB0CF11D
:10031000994207D9EB180CF1FF3002D2994200F252
:10032000CD808446591AA3B2B1FBFEF00EFB101427
:1003300043EA044408FB00F8A04507D92C1900F152
:10034000FF3302D2A04500F2B6801846A4EB0804A1
:1003500040EA0C409FE7C7F1200CBB4022FA0CFE9C
:100360004EEA030E01FA07F420FA0CF521FA0CF319
:100370004FEA1E482543B3FBF8F92C0C08FB193350
:100380001FFA8EFA44EA034309FB0AF49C4202FA7C
:1003900007F200FA07F10BD91EEB030309F1FF3056
:1003A00080F087809C4240F28480A9F10209734466
:1003B0001B1BADB2B3FBF8F008FB103345EA034456
:1003C00000FB0AFAA24508D91EEB040400F1FF3332
:1003D0006BD2A24569D90238744440EA0940A0FBB7
:1003E0000289A4EB0A044C45C2464B4654D351D073
:1003F000002E69D0B1EB0A0564EB030404FA0CFC8F
:10040000FD40FC404CEA0505C6E90054002747E7DB
:10041000C2F1200320FA03F7954001FA02F021FA15
:1004200003F34FEA154E3843010CB3FBFEF71FFAF6
:1004300085F80EFB173341EA034107FB08F38B42B3
:1004400004FA02F407D9691807F1FF3C2FD28B4256
:100450002DD9023F2944CB1A81B2B3FBFEF00EFB2B
:10046000103341EA034100FB08F38B4207D96918B6
:1004700000F1FF3C17D28B4215D902382944C91A22
:1004800040EA07473BE73746304609E70746E7E6D5
:100490001846FBE64145ABD2B8EB020A69EB0E0207
:1004A00001381346A4E76046E9E7184695E7674632
:1004B000D1E781467CE702382C4447E7ACF1020CD7
:1004C0002B442FE7384608E73746E9E6704700BF78
:1004D000164B1878012822D87047D468DC60D360A6
:1004E000134C22601446012701E01C4613460131DB
:1004F000421E8A420DDDDA68DE88D588AE42F4D924
:10050000002CEAD0E260D568DD60D360E4680127A2
:10051000EDE70BB1074A136017B9F0BC7047F0B4B0
:10052000034B1B6800210F460C46E1E7AC0000209E
:10053000B0000020A8000020094B198881420DD38B
:10054000084B1B683BB1DA88824201D8DB68F9E7C7
:10055000121A90B270470A1A90B270470020704782
:10056000A4000020B00000200378DB090B700378A2
:1005700003F07F030370704790F900300A7843EA74
:10058000C21303707047032800D8FEE770470000CD
:10059000164B1B78012B24D970B5154B1B68DA88D4
:1005A000A13A064682421EDADA6852B1D188DC8866
:1005B0009D886319C91A13468E42F5DC601980B212
:1005C00070BDDA880B490988891A9C880B199842F2
:1005D00002DC101980B2F3E70320FFF7D4FF0020FC
:1005E000EEE7A1207047A120EAE700BFAC000020A1
:1005F000B0000020A400002008B5102002F0AEFCDE
:100600000023C360054B1B682BB1054B1B68D860EA
:10061000034B186008BD014B1860F9E7B0000020DB
:10062000A800002010B582B0114C030A237060703E
:100630000A2000F08DFD0F4B19780F4B18684FF012
:10064000FF33009302232246490001F06DF80B4B63
:10065000187040B9084B1B6893F84130DBB2202B6F
:10066000F8D102B010BD0120FFF78DFFF2E700BF07
:10067000B4000020A6000020A0000020AD00002053
:1006800010B582B0114C030A23706070A170052070
:1006900000F05EFD0E4B19780E4B18684FF0FF33DB
:1006A000009303232246490001F03EF80A4B1870DC
:1006B00040B9084B1B6893F84130DBB2202BF8D1CE
:1006C00002B010BD0120FFF75EFFF2E7B40000208A
:1006D000A6000020A0000020AD00002030B583B0AF
:1006E0000C461546FFF79EFF052000F031FD0B4B31
:1006F000197849000A4B18684FF0FF3300932B46D6
:10070000224641F0010101F0CDF8064B187008B9FE
:1007100003B030BD0120FFF736FFF9E7A600002047
:10072000A0000020AD00002010B500240AE00F4B0F
:1007300018600F4B1960E0000130082280B2FFF70B
:10074000CDFF01340B4B1B78A3420EDD102002F0CD
:1007500005FC01460023C3608360044B1B68002B2B
:10076000E5D0034B1B68D860E3E710BDB000002064
:10077000A8000020AC00002010B584B004AC062313
:1007800004F8013DFFF74EFF0D4B197849000D4B62
:1007900018684FF0FF33009301232246194301F0FC
:1007A00081F8094B187030B9052000F0D1FC9DF894
:1007B0000F0004B010BD0120FFF7E5FEF4E700BF15
:1007C000A6000020A0000020AD00002070B5064665
:1007D000094B1C680025094B1B78AB4208DD03223E
:1007E0002146304602F09EFC18B1E4680135F2E77C
:1007F0000024204670BD00BFB0000020AC000020E7
:10080000F8B50646204B1C6803220146204602F03C
:1008100089FC48B1032231461C4B186802F082FC67
:10082000024650B1002518E0E268174B1A602046D6
:1008300002F09CFB0EE0E4680132154B1B78023B92
:100840009342F8DC114D2C60E06802F08FFB2B68BE
:100850000022DA60F8BDE46801350D4B1B78023BDD
:10086000AB42F7DDE76803223146384602F05AFC16
:100870000028F0D1384602F079FBE368DB68E360DA
:10088000034B1D78E7E700BFB0000020A800002060
:10089000AC000020F0B583B006460F461446901C0D
:1008A00002F05CFB05463B0A03704770002304E03E
:1008B0009A1CF15CA95401339BB2A342F8D30520E2
:1008C00000F046FCA31C0F4A11780F4A10684FF045
:1008D000FF3200929BB22A46490000F025FF0B4BE5
:1008E000187058B9084B1B6893F84130DBB2202BC5
:1008F000F8D1284602F03AFB03B0F0BD0120FFF723
:1009000042FEEFE7A6000020A0000020AD0000207E
:100910002DE9F04180460F464B0901335B019BB244
:100920008E18B6B2013EB6B20D4615E0DCB2EBB29F
:10093000E41AE4B2C01BA4B2224629464044FFF7A1
:10094000A9FF052000F004FC2544ADB26B0901337A
:100950005B019BB2AE4208D92846721B591B8A42E2
:10096000E4DAD4B20134E4B2E4E7BDE8F081000097
:1009700038B505460E4C21780131C9B221700020EE
:10098000FFF77EFE2478142C0ED8A888FFF700FE0F
:10099000E880611EC9000131082289B22846FFF7AC
:1009A000B7FFFFF795FD38BD0220FFF7ECFDECE740
:1009B000AC00002070B582B0064600250D4B1B78B8
:1009C000AB4215DDEC00A4B2601C032201A980B289
:1009D000FFF784FE0322314601A802F0A3FB08B111
:1009E0000135EBE7211D89B20522F01CFFF790FFCE
:1009F00002B070BDAC00002070B584B00646FFF7B1
:100A0000FFFE194B18780138C000013008220DEBA9
:100A1000020180B2FFF762FE002500E00135124BB3
:100A20001978A94217DDEC000134A4B2032201A910
:100A30002046FFF753FE0322314601A802F072FB65
:100A40000028EBD1082221460DEB0200FFF760FFE2
:100A5000054B1D78E2E70139C9B219700020FFF794
:100A60000FFE04B070BD00BFAC00002084B010B514
:100A70008AB00CAC84E80F002122002101A802F00A
:100A800088FA00240FE0202201A92046FFF726FE65
:100A90006423202201A90CA802F039F90A2000F0F1
:100AA00057FB2034A4B2044B1B88A342EBD80AB0F6
:100AB000BDE8104004B07047A4000020F0B585B038
:100AC00007460D4616468DF807301046FFF77EFEA6
:100AD00004469DF90730002B2DDB24B10DF10F01E9
:100AE000E01CFFF741FD9DF8283013B101238DF87C
:100AF000283024B3A688AE4204D1E2789DF80730AE
:100B00009A423CD0E088FFF717FD864230D80AA908
:100B10000DF10700FFF730FD9DF80730E370A58069
:100B2000A7602046FFF746FFA288E188A068FFF78C
:100B3000EFFE05B0F0BD7F238DF80730CDE7FFF75E
:100B40005BFD0446314602F0E5FA0AA90DF1070003
:100B5000FFF712FD9DF80730E370A580A7602046DF
:100B6000FFF706FFA288E188A068FFF7D1FEE0E763
:100B70003046FFF70DFDE080FFF7AAFCC7E79DF8C0
:100B80000F209DF828309A4201D1A760D1E70AA929
:100B90000DF10700FFF7F0FC9DF80730E370A76048
:100BA0002046FFF707FFC4E770B50B4B18680B4BE7
:100BB0001E78002401E001342846A6420ADDC568FB
:100BC0008368002BF7D190F90330002BF3DBFFF79C
:100BD00013FFF0E770BD00BFB0000020AC000020A4
:100BE00008B5084B1860084B1980084B1A70002094
:100BF000FFF7C2FD064B1870FFF796FDFFF768FC84
:100C000008BD00BFA0000020A4000020A600002016
:100C1000AC000020F0B589B000240394049405943E
:100C200006940794314BDA6C42F00402DA64DA6C11
:100C300002F004020092009ADA6C42F00102DA64D7
:100C4000DA6C02F001020192019ADA6C42F00202BF
:100C5000DA64DB6C03F002030293029B244F22460A
:100C60004FF48041384600F0B1FB224E2246092164
:100C7000304600F0ABFB22464FF480714FF09040BD
:100C800000F0A4FB4FF480430393012504950594E1
:100C9000069403A9384600F0D9FA09230393049572
:100CA0000594069403A9304600F0D0FA4FF48073FF
:100CB000039304950594069403A94FF0904000F027
:100CC000C5FA4FF4006303930B4B0493059403A9F7
:100CD0004FF0904000F0BAFA22462146282000F05A
:100CE0005DFA282000F08EFA09B0F0BD0010024035
:100CF00000080048000400480000111038B50D4CF1
:100D00000D4B23600D4B63600025A5600123E3605C
:100D100025616561A561E5612562204600F0A6FCBC
:100D20002946204600F07CFE2946204600F0A6FE1B
:100D300038BD00BFB8000020005C0040FF8C403090
:100D400008B50948094B03604FF4E13343600023C1
:100D50008360C36003610C2242618361C3610362EB
:100D6000436202F076F808BD04010020003801401B
:100D700010B5ACB0242200211CA802F00AF900240E
:100D800016941794189419941A945422214601A881
:100D900002F0FFF810231B9301222192602323937A
:100DA000022325932692279228222892072229920D
:100DB0002A932B931BA800F07FFF0F231693032386
:100DC0001793189419941A94042116A801F0BAFAEA
:100DD00040F20113019309940D9401A801F03EFC27
:100DE0004FF4007000F07EFE2CB010BD70B5AAB0BC
:100DF00000F08CF9FFF7BCFFFFF70CFFFFF77EFF59
:100E0000FFF79EFF50224FF47A612448FFF7E8FE77
:100E1000234C26AE94E80F0086E80F002369ADF856
:100E200094301B0C8DF896301CAC1E4D0FCD0FC4AA
:100E30000FCD0FC42B6823600024009401231A4AAD
:100E400024211CA8FFF73AFE00940123174A102121
:100E50003046FFF733FE00940F23154A032125A8DF
:100E6000FFF72CFEFFF7A0FE124B1B78002BFBD0E8
:100E7000114C702204F11001684602F07FF894E8EA
:100E80000F00FFF7F3FD00220A4B1A704FF4807138
:100E90004FF0904000F09AFAE6E700BFB80000205B
:100EA00068310008D0310008C4310008C83100089A
:100EB000CC3100088C00002004010020B0F5006F48
:100EC00000D0704708B501224FF480714FF0904078
:100ED00000F07CFA014B01221A7008BD8C00002042
:100EE00082B00A4B1A6E42F001021A661A6E02F0C4
:100EF00001020092009A9A6D42F080529A659B6DB1
:100F000003F080530193019B02B070470010024030
:100F10002DE9F04188B000230393049305930693D1
:100F2000079302681F4B9A4202D008B0BDE8F081D7
:100F30001D4CE36C43F00103E364E36C03F0010335
:100F40000093009BE36C43F00203E364E36C03F063
:100F500002030193019B802303934FF01208CDF805
:100F6000108001270597032606960425079503A9F7
:100F70004FF0904000F06AF910230393CDF81080F1
:100F800005970696079503A9084800F05FF9A36D39
:100F900043F40003A365A36D03F400030293029BD3
:100FA000C3E700BF005C004000100240000400489E
:100FB00000B589B000230393049305930693079328
:100FC0000268144B9A4202D009B05DF804FB03F5A5
:100FD00058431A6E42F480421A661A6E02F4804236
:100FE0000192019ADA6C42F00102DA64DB6C03F0E0
:100FF00001030293029B4FF4C06303930223049303
:10100000032306930723079303A94FF0904000F0B2
:101010001DF9D9E7003801407047FEE7FEE7FEE71B
:10102000FEE770477047704708B500F07FF808BDCD
:1010300008B54FF4006000F0CFF908BD08B50346CD
:101040000B4A126842B10A4A106803446A46934246
:1010500006D8074A136008BD054A06491160F2E741
:1010600001F052FF0C2303604FF0FF30F3E700BFA5
:1010700090000020900100200F49D1F8883043F4FF
:101080007003C1F888300D4B1A6842F001021A60F3
:10109000002098601A6822F0A85222F410221A60E8
:1010A0004FF48052DA601A6822F480221A60986144
:1010B0004FF000638B60704700ED00E000100240CD
:1010C000104B1B780BB90120704710B504464FF444
:1010D0007A70B0FBF3F30C4A1068B0FBF3F000F049
:1010E0009FF868B90F2C01D901200AE0002221469F
:1010F0004FF0FF3000F052F8024B5C60002000E03F
:10110000012010BD040000200000002010B50320C5
:1011100000F032F80020FFF7D3FF10B10124204681
:1011200010BD0446FFF7DCFEF9E70000034B1B7817
:10113000034A11680B441360704700BF040000208D
:1011400084010020014B1868704700BF8401002013
:1011500038B50446FFF7F6FF0546B4F1FF3F02D06D
:10116000044B1B781C44FFF7EDFF401BA042FAD351
:1011700038BD00BF04000020074AD36823F4E063B1
:101180001B041B0C000200F4E060184340F0BF6039
:1011900040F40030D060704700ED00E030B4174BF1
:1011A000DB68C3F30223C3F10704042C28BF042423
:1011B0001D1D062D18D9033B4FF0FF3505FA04F429
:1011C00021EA0401994005FA03F322EA03031943D3
:1011D00000280BDB0901C9B200F1604000F5614055
:1011E00080F8001330BC70470023E5E700F00F00E3
:1011F0000901C9B2024B1954F4E700BF00ED00E049
:1012000014ED00E0002807DB00F01F024009012375
:101210009340024A42F82030704700BF00E100E0EE
:101220000138B0F1807F0AD2064B5860064AF0219F
:1012300082F823100020986007221A60704701206E
:10124000704700BF10E000E000ED00E0F0B583B0B3
:10125000002396E086685F000325BD4026EA050668
:10126000CD68BD4035438560466826EA04064D6872
:10127000C5F300149C4034434460C5685F000324F8
:10128000BC40E44325408E68BE402E43C6604D6896
:10129000022D01D0122D13D1DE08083650F826E0B9
:1012A00003F007054FEA850C0F2505FA0CF52EEA29
:1012B000050E0D6905FA0CF545EA0E0540F82650B5
:1012C00005682C404D6805F00305BD402C430460C3
:1012D0004C6814F0805F53D0384C256E45F0010502
:1012E0002566246E04F001040194019C9D08AE1C47
:1012F000334C54F8267003F00304A6000F24B440C6
:1013000027EA0407B0F1904F51D02E4CA04250D0A4
:1013100004F58064A04248D00724B4403C43023521
:10132000274E46F82540284C2568D44304EA050694
:101330004F6817F4803F01D042EA0506224D2E6027
:101340006D6804EA05064F6817F4003F01D042EAD1
:1013500005061D4D6E60AD6804EA05064F6817F47A
:10136000801F01D042EA0506174DAE60ED682C40A3
:101370004E6816F4001F01D042EA0504124AD460F8
:1013800001330A6832FA03F415D001249C4022404C
:10139000F6D04D686E1E012E7FF65CAF112D3FF426
:1013A00059AF122D7FF469AF54E70224B5E700244A
:1013B000B3E70124B1E703B0F0BD00BF0010024065
:1013C0000000014000040048000401400AB98162A5
:1013D000704781617047000008B5054B5B690342A7
:1013E00000D108BD024B5861FFF768FDF9E700BF67
:1013F0000004014003689A6912F0020F01D0002234
:101400009A6203689A6912F0010F03D19A6942F057
:1014100001029A61704770B4039E05686868740D94
:1014200004F4806444F07F7444F4583444F47F74CA
:1014300044F0030420EA0400C1F3090141EA024137
:10144000194331430143696070BC704770B504466D
:101450000D46164603689B6913F0100F1CD02368D5
:101460009A6912F0200F19D1B5F1FF3FF7D0FFF7BD
:1014700069FE801BA84201D8002DF0D1636C43F0B7
:1014800020036364202384F84130002384F8423031
:1014900084F84030012020E000201EE01022DA61B4
:1014A00023682025DD612046FFF7A4FF22685368EA
:1014B00023F0FF7323F48B3323F4FF7323F0010332
:1014C0005360636C43F00403636484F84150002369
:1014D00084F8423084F84030012070BD70B5044675
:1014E0000D46164623689B6913F0020F1DD1324644
:1014F00029462046FFF7AAFFC8B9B5F1FF3FF1D052
:10150000FFF720FE801BA84201D8002DEAD1636CB2
:1015100043F020036364202384F84130002384F8DF
:10152000423084F84030012000E0002070BD0120EE
:10153000FCE7F8B505460F4616461C462B689B6926
:1015400037EA03030CBF01230023B34218D1B4F1DF
:10155000FF3FF3D0FFF7F6FD069BC01AA04201D86B
:10156000002CEBD16B6C43F020036B64202385F8D7
:101570004130002385F8423085F84030012000E0FA
:101580000020F8BD70B505460C4616462B689B69D1
:1015900013F0200F1AD1324621462846FFF756FF96
:1015A000B0B9FFF7CFFD801BA04201D8002CEDD1D0
:1015B0006B6C43F020036B64202385F841300023DB
:1015C00085F8423085F84030012070BD0020FCE7EE
:1015D0000120FAE770B504460D46164623689B695C
:1015E00013F0040F3ED1324629462046FFF72EFF66
:1015F0000146002838D123689A6912F0200F13D1D0
:10160000FFF7A0FD801BA84201D8002DE6D1636C36
:1016100043F020036364202384F84130002384F8DE
:1016200040300121084670BD9A6912F0040F02D0C3
:10163000228D002AF6D12022DA6121684B6823F03E
:10164000FF7323F48B3323F4FF7323F001034B6008
:101650000023636484F8412084F8423084F84030E9
:101660000121DFE70021DDE70121DBE7002859D078
:1016700010B5044690F84130002B43D0242384F861
:1016800041302268136823F0010313606368226805
:1016900023F0706313612268936823F4004393601E
:1016A000E368012B33D0A368226843F404439360BA
:1016B000E368022B31D02268536843F0007343F48F
:1016C000004353602268D36823F40043D360236946
:1016D00062691343A169226843EA0123D360E36985
:1016E000216A22680B4313602268136843F00103E8
:1016F000136000206064202384F84130206384F864
:10170000420010BD80F84030FFF702FCB6E7A36846
:10171000226843F400439360CAE723684FF40062F1
:101720005A60C8E7012070472DE9F04383B090F874
:101730004150EDB2202D40F0A48090F84040012CA3
:1017400000F0A480984617460E4604464FF0010963
:1017500080F84090FFF7F6FC0546009019234A46B2
:101760004FF400412046FFF7E4FE002840F090804F
:10177000212384F84130102384F84230002363642D
:101780006762A4F82A806363638D9BB2FF2B0AD93A
:10179000FF222285424B00934FF080733146204652
:1017A000FFF739FE18E0628D92B222853C4B009320
:1017B0004FF00073D2B231462046FFF72CFE0BE00B
:1017C000628D92B22285002300934FF00073D2B253
:1017D00031462046FFF71FFE638D9BB2002B33D0AE
:1017E0002A460A992046FFF779FE002852D1626AFC
:1017F000236812789A62636A01336362638D013BE6
:101800009BB26385238D013B9BB22385628D92B28F
:10181000002AE1D0002BDFD100950A9B0022802115
:101820002046FFF786FE002836D1638D9BB2FF2B42
:10183000C6D9FF222285002300934FF080733146E2
:101840002046FFF7E8FDC7E72A460A992046FFF73A
:1018500099FE034610BB22682021D16120684268AE
:1018600022F0FF7222F48B3222F4FF7222F0010286
:10187000426084F84110002284F8422084F840201D
:1018800000E00223184603B0BDE8F0830223F9E725
:101890000123F7E70123F5E70123F3E70123F1E74C
:1018A000002000802DE9F04383B090F84150EDB264
:1018B000202D40F0A48090F84040012C00F0A4803E
:1018C000984617460E4604464FF0010980F84090AE
:1018D000FFF738FC0546009019234A464FF40041B3
:1018E0002046FFF726FE002840F09080222384F84F
:1018F0004130102384F84230002363646762A4F807
:101900002A806363638D9BB2FF2B0AD9FF22228555
:10191000424B00934FF0807331462046FFF77BFD2A
:1019200018E0628D92B222853C4B00934FF0007319
:10193000D2B231462046FFF76EFD0BE0628D92B2C7
:101940002285002300934FF00073D2B23146204627
:10195000FFF761FD638D9BB2002B33D02A460A99B5
:101960002046FFF737FE002852D123685A6A636A7F
:101970001A70636A01336362238D013B9BB2238536
:10198000628D013A92B26285628D92B2002AE1D0F4
:10199000002BDFD100950A9B002280212046FFF713
:1019A000C8FD002836D1638D9BB2FF2BC6D9FF221C
:1019B0002285002300934FF0807331462046FFF7C5
:1019C0002AFDC7E72A460A992046FFF7DBFD0346B2
:1019D00010BB22682021D1612068426822F0FF728A
:1019E00022F48B3222F4FF7222F00102426084F86A
:1019F0004110002284F8422084F8402000E00223B5
:101A0000184603B0BDE8F0830223F9E70123F7E7A6
:101A10000123F5E70123F3E70123F1E70024008028
:101A200090F84130DBB2202B24D190F84030012BCC
:101A300022D0012380F84030242380F8413002680E
:101A4000136823F0010313600268136823F48053C2
:101A5000136002681368194311600268136843F049
:101A600001031360202380F84130002380F84030C8
:101A700018467047022070470220704790F84130A6
:101A8000DBB2202B22D190F84030012B20D0012353
:101A900080F84030242380F841300268136823F036
:101AA000010313600268136823F4706343EA0121A1
:101AB00011600268136843F001031360202380F86B
:101AC0004130002380F840301846704702207047AC
:101AD00002207047024B186800F4C060704700BFD6
:101AE00000700040B0F5007F0FD01F4B1B6803F45F
:101AF000C063B3F5806F34D01B4A136823F4C0630E
:101B000043F48063136000207047174B1B6803F495
:101B1000C063B3F5007F22D0134A136823F4C06377
:101B200043F400731360114B1A68322303FB02F372
:101B30000F4AA2FB03239B0C013300E0013B0A4A3E
:101B4000526912F4806F01D0002BF7D1064B5B690C
:101B500013F4806F01D100207047032070470020EC
:101B600070470020704700BF007000400000002058
:101B700083DE1B4330B583B00546204B9B6D13F0CD
:101B8000805F0BD0FFF7A6FFB0F5007F17D0802D48
:101B90001FD82DD0702D2DD000211BE0174CA36D28
:101BA00043F08053A365A36D03F080530193019B21
:101BB000FFF790FFA36D23F08053A365E4E7802D2A
:101BC00003D9A02D03D9022104E0002102E0012164
:101BD00000E003210A4A136823F007030B43136054
:101BE000136803F007038B4206D0012003B030BD19
:101BF0000221EFE70121EDE70020F7E700100240A6
:101C000000200240284A9368D26802F0030213F0D1
:101C10000C030AD00C2B06D0042B1FD0082B20D08D
:101C20000020024610E0012AF6D11F4A126812F085
:101C3000080F0CD11C4AD2F89420C2F303221B498E
:101C400051F8222043B100200C2B0DD07047164ACA
:101C50001268C2F30312F2E71046F5E714480022B7
:101C6000F2E714480022EFE70F4BDB6803F00303B1
:101C7000022B15D0032B15D00B4BD868C0F30210E4
:101C80000130D968C1F3062102FB01F2B2FBF0F288
:101C9000D868C0F3416001304000B2FBF0F0D5E7F6
:101CA000034AE9E7034AE7E7001002407C310008F5
:101CB0000024F40000127A00002800F02783F0B519
:101CC00083B00446AF4B9D6805F00C05DE6806F056
:101CD0000306036813F0100F5BD0E5B10C2D18D08C
:101CE000A369002B00F0BC80A64A136843F00103EF
:101CF0001360FFF727FA0746A24B1B6813F0020F89
:101D000040F09B80FFF71EFAC01B0228F4D9032382
:101D100008E3012EE4D19B4B1B6813F0020F03D0A4
:101D2000A369002B00F0F582206A964B1B6813F024
:101D3000080F5CD0934B1B6803F0F00398425DD80A
:101D4000904B1A6842F008021A601A6822F0F002FA
:101D5000216A0A431A605A6822F47F42E16942EA22
:101D600001225A60002D61D0FFF74CFF854B9B6824
:101D7000C3F30313844AD35C03F01F03D840834B9F
:101D80001860834B1868FFF79BF90346002840F062
:101D9000C982236813F0010F00F08180082D75D0EF
:101DA0000C2D71D06368B3F5803F00F09780B3F5D8
:101DB000A02F00F09980734B1A6822F480321A60C9
:101DC0001A6822F480221A606368002B00F0998060
:101DD000FFF7B8F907466B4B1B6813F4003F5ED161
:101DE000FFF7B0F9C01B6428F5D903239AE2654BCD
:101DF000D3F894301B0903F0F0039FE7FFF7BAFE16
:101E0000002840F088825F4B1A6842F008021A608E
:101E10001A6822F0F002216A0A431A605A6822F412
:101E20007F42E16942EA01225A609DE7206AFFF79A
:101E3000A1FE002898D0012374E2524B1A6842F0A8
:101E400008021A601A6822F0F002216A0A431A6036
:101E50005A6822F47F42E16942EA01225A6098E717
:101E6000484A136823F001031360FFF76BF9074634
:101E7000444B1B6813F0020F8BD0FFF763F9C01BB4
:101E80000228F5D903234DE2032E8BD13D4B1B686D
:101E900013F4003F03D06368002B00F03E822368F8
:101EA00013F0020F4FD0042D3CD00C2D38D0E36836
:101EB000002B78D0334A136843F480731360FFF724
:101EC00041F906462F4B1B6813F4806F62D1FFF770
:101ED00039F9801B0228F5D9032323E2294A136824
:101EE00043F4803313606FE703F18043A3F53C3381
:101EF0001A6842F480221A601A6842F480321A602A
:101F000062E7FFF71FF907461E4B1B6813F4003FFB
:101F1000C5D0FFF717F9C01B6428F5D9032301E2E8
:101F2000022EC4D1174B1B6813F4806F03D0E368F3
:101F3000002B00F0F481134A536823F0FE4321691B
:101F400043EA01635360236813F0080F56D06369B6
:101F5000002B3CD00B4AD2F8943043F00103C2F876
:101F60009430FFF7EFF80646064BD3F8943013F0A1
:101F7000020F43D1FFF7E6F8801B0228F4D90323B0
:101F8000D0E100BF00100240AC310008000000208A
:101F900008000020B04A536823F0FE43216943EA59
:101FA00001635360CFE7AC4A136823F48073136076
:101FB000FFF7C8F80646A84B1B6813F4806FC2D021
:101FC000FFF7C0F8801B0228F5D90323AAE1A24A33
:101FD000D2F8943023F00103C2F89430FFF7B2F83E
:101FE00006469D4BD3F8943013F0020F06D0FFF74E
:101FF000A9F8801B0228F4D9032393E1236813F086
:10200000040F7AD0944B9B6D13F0805F0BD1924BF1
:102010009A6D42F080529A659B6D03F08053019354
:10202000019B012600E000268C4B1B6813F4807F87
:1020300026D0A368012B37D0052B3DD0864BD3F893
:10204000902022F00102C3F89020D3F8902022F0D3
:102050000402C3F89020A368002B3BD0FFF772F86E
:1020600007467D4BD3F8903013F0020F44D1FFF7B1
:1020700069F8C01B41F288339842F2D9032351E139
:10208000764A136843F480731360FFF75BF80746E2
:10209000724B1B6813F4807FCBD1FFF753F8C01B42
:1020A0000228F5D903233DE16B4AD2F8903043F082
:1020B0000103C2F89030CEE7674BD3F8902042F08E
:1020C0000402C3F89020D3F8902042F00102C3F834
:1020D0009020C0E7FFF736F807465F4BD3F8903003
:1020E00013F0020F08D0FFF72DF8C01B41F2883320
:1020F0009842F2D9032315E1E6B9236813F0200FC3
:1021000035D0636AE3B1544AD2F8983043F0010302
:10211000C2F89830FFF716F806464F4BD3F89830C0
:1021200013F0020F23D1FFF70DF8801B0228F4D91A
:102130000323F7E0484A936D23F080539365DCE76F
:10214000454AD2F8983023F00103C2F89830FEF7E0
:10215000F9FF0646404BD3F8983013F0020F06D033
:10216000FEF7F0FF801B0228F4D90323DAE0A36A0C
:10217000002B00F0D680022B27D00C2D00F0DB8046
:10218000354B1A6822F080721A601B6813F0006FDA
:1021900004D1314AD36823F00303D3602E4AD368B5
:1021A00023F0887323F48033D360FEF7CBFF04461B
:1021B000294B1B6813F0007F00F0A680FEF7C2FFDA
:1021C000001B0228F4D90323ACE0234BDB6803F0A7
:1021D0000301E26A914209D00C2D00F0A6801E4B4B
:1021E0001B6813F0806F3BD001239BE003F070026B
:1021F000216B0139B2EB011FEED103F4FE42616B9A
:10220000B2EB012FE8D103F07842A16BB2EBC16FC2
:10221000E2D103F4C001E26B5208013AB1EB425F34
:10222000DAD103F0C063226C5208013AB3EB426F7B
:10223000D2D1094B1B6813F0007F78D1064B1A6886
:1022400042F080721A60DA6842F08072DA60FEF75B
:1022500079FF044651E000BF0010024000700040CA
:10226000364A136823F080731360FEF76BFF054650
:10227000324B1B6813F0007F06D0FEF763FF401B54
:102280000228F5D903234DE02C4AD3682C49194084
:10229000E36A206B013843EA0013606B43EA0023D2
:1022A000E06B4008013843EA4053206C4008013895
:1022B00043EA4063A06B43EAC0630B43D3601368F7
:1022C00043F080731360D36843F08073D360FEF7EC
:1022D00039FF0446194B1B6813F0007F06D1FEF747
:1022E00031FF001B0228F5D903231BE0002319E06E
:1022F000FEF728FF001B02281BD8104B1B6813F0A9
:10230000007FF5D000230DE000230BE001231846E9
:102310007047012306E0012304E0012302E00123CA
:1023200000E00023184603B0F0BD0123FAE70023C4
:10233000F8E70323F6E70123F4E700BF00100240AB
:102340008C809D01002800F09B8070B504464E4BA8
:102350001B6803F007038B420CD24B4A136823F02F
:1023600007030B431360136803F007038B4201D08C
:10237000012070BD0D46236813F0010F39D063684A
:10238000032B09D0022B26D063BB404A126812F0FF
:10239000020F06D10120ECE73C4A126812F0007FE0
:1023A00070D03A498A6822F0030213438B60FEF72B
:1023B000C9FE0646354B9B6803F00C036268B3EB1D
:1023C000820F16D0FEF7BEFE801B41F28833984282
:1023D000F0D90320CDE72D4A126812F4003FE0D176
:1023E0000120C6E7294A126812F4806FD9D1012072
:1023F000BFE7236813F0020F06D0244A936823F046
:10240000F003A1680B4393601F4B1B6803F00703A5
:10241000AB420CD91C4A136823F007032B4313600B
:10242000136803F00703AB4201D00120A1E7236842
:1024300013F0040F06D0154A936823F4E063E168B3
:102440000B439360236813F0080F07D00F4A93687B
:1024500023F46053216943EAC1039360FFF7D2FB81
:102460000A4B9B68C3F30313094AD35C03F01F03B1
:10247000D840084B1860084B1868FEF721FE78E733
:1024800001207047012074E7002002400010024044
:10249000AC3100080000002008000020014B186843
:1024A000704700BF0000002008B5FFF7F7FF054B9D
:1024B0009B68C3F30223044AD35C03F01F03D84094
:1024C00008BD00BF00100240BC31000808B5FFF78E
:1024D000E5FF054B9B68C3F3C223044AD35C03F0BA
:1024E0001F03D84008BD00BF00100240BC310008E7
:1024F000F8B5594BDB6813F0030F18D0564BDB6867
:1025000003F003030268934202D001252846F8BD78
:10251000002A00F09F80504BDB68C3F302130133A5
:102520004268934201D00125F0E700251AE00368D4
:10253000022B58D0032B5DD0012B01D001250FE0D9
:10254000454A126812F0020F60D0434DEA6822F04B
:1025500073024468013C43EA04131343EB60002513
:10256000002DD3D10F4604463B4A136823F0806305
:102570001360FEF7E7FD0646374B1B6813F0006F4C
:1025800005D0FEF7DFFD801B0228F5D90325002DBD
:10259000BCD1002F3CD130490B6923F0784323F4A0
:1025A000FE43A068E268D20642EA002213430B61B0
:1025B000294A136843F080631360FEF7C3FD0646A3
:1025C000254B1B6813F0006F05D1FEF7BBFD801B88
:1025D0000228F5D90325002D98D11F4A1369A16956
:1025E0000B43136192E71C4A126812F4806FACD15E
:1025F0000125B5E7184A126812F4003FA5D1164A22
:10260000126812F4802FA0D10125A9E70125A7E7C0
:10261000012F0FD01048026922F0C06222F4FE425E
:10262000A16863695B08013B5B0643EA012313432E
:102630000361BDE70848026922F4C00222F4FE42A9
:10264000A16823695B08013B5B0543EA012313434F
:102650000361ADE7012559E7001002402DE9F04183
:1026600082B00446036813F4006F26D0C36BB3F541
:10267000000F06D0B3F5400F1DD09BB101263746A1
:102680001DE0AE4AD36843F48033D3600027AB4AE1
:10269000D2F8883023F44003E16B0B43C2F8883052
:1026A00000260CE000210430FFF722FF0746002837
:1026B000EDD0064603E00027E9E700263746236809
:1026C00013F4003F6BD09D4B9B6D13F0805F4CD19A
:1026D0009A4B9A6D42F080529A659B6D03F080533D
:1026E0000193019B4FF00108954A136843F48073EE
:1026F0001360FEF727FD0546914B1B6813F4807F9E
:1027000005D1FEF71FFD401B0228F5D90327002F36
:1027100040D18A4BD3F8903013F4407315D0226D1A
:102720009A4212D0854AD2F8903023F44073D2F8FE
:10273000901041F48031C2F89010D2F8901021F43A
:102740008031C2F89010C2F8903013F0010F0FD111
:10275000002F40F0C980794AD2F8903023F44073BA
:10276000216D0B43C2F8903015E04FF00008BBE735
:10277000FEF7E8FC0546714BD3F8903013F0020FDA
:10278000E6D1FEF7DFFC401B41F288339842F2D9D4
:102790000327DDE73E46B8F1000F40F0A78023682D
:1027A00013F0010F08D0654AD2F8883023F00303F4
:1027B000216A0B43C2F88830236813F0020F08D057
:1027C0005E4AD2F8883023F00C03616A0B43C2F8EA
:1027D0008830236813F0200F08D0584AD2F8883088
:1027E00023F44063A16A0B43C2F88830236813F4D2
:1027F000007F08D0514AD2F8883023F44023616B1F
:102800000B43C2F88830236813F4806F08D04B4A1A
:10281000D2F8883023F44013A16B0B43C2F8883000
:10282000236813F0400F08D0444AD2F8883023F4CC
:102830004053E16A0B43C2F88830236813F4807F69
:1028400008D03E4AD2F8883023F44033216B0B4342
:10285000C2F88830236813F4005F0FD0374AD2F8EB
:10286000883023F04063216C0B43C2F88830236C1E
:10287000B3F1006F40D0B3F1806F42D0236813F4FE
:10288000802F0FD02D4AD2F8883023F04063616C3E
:102890000B43C2F88830636CB3F1006F39D0B3F1E9
:1028A000806F3BD0236813F4804F0CD0234AD2F8BA
:1028B000883023F04053A16C0B43C2F88830A36CDE
:1028C000B3F1805F32D0236813F4004F08D01B4A65
:1028D000D2F8883023F08043E16C0B43C2F8883093
:1028E000304602B0BDE8F0813E4654E7134A936D8E
:1028F00023F08053936552E7D36843F48013D36089
:10290000BCE70121201DFFF7F3FD0028B6D00646E5
:10291000B4E7D36843F48013D360C3E70121201DDB
:10292000FFF7E6FD0028BDD00646BBE70221201DCB
:10293000FFF7DEFD0028C6D00646C4E700100240BF
:10294000007000402DE9D848044601688368026998
:10295000134342691343C269134308688C4A024017
:1029600013430B602268536823F44053E1680B4320
:102970005360A1692268874B9A4201D0236A1943A8
:10298000936823F430630B4393602368824A934235
:102990001CD0824A93422DD07E4A934243D01022CB
:1029A0007C498B425ED0E369B3F5004F00F08C8028
:1029B000082A00F2E780DFE812F0B700CE00B50089
:1029C000E500D100E500E500E500D40002F558423D
:1029D000D2F8882002F00302032A09D8DFE802F0C7
:1029E00002043C060122DBE70422D9E70822D7E7EC
:1029F0001022D5E702F5E632D2F8882002F00C0268
:102A00000C2A0ED8DFE802F0070D0D0D090D0D0D93
:102A10002A0D0D0D0B000022C2E70422C0E7082298
:102A2000BEE71022BCE702F5C832D2F8882002F4D3
:102A30004062B2F5806F0BD007D9B2F5006F0FD0AE
:102A4000B2F5406F06D10822AAE71AB90022A7E71B
:102A50000422A5E71022A3E70222A1E702229FE7B2
:102A600002229DE7082A7FD8DFE802F0087E107E68
:102A70000D7E7E7E05004FF4004008E0FFF714FD58
:102A800028B9002062E0FFF7BDF8F9E74448626822
:102A900002EB4203834269D8B0EB023F68D80023BF
:102AA000070E0602500816EB000B47F1000C5846C3
:102AB0006146FDF78DFBA0F540723A4B9A4259D81A
:102AC0002368D860002041E0082A55D8DFE802F0EA
:102AD00007210554245454542700314803E0FFF7DC
:102AE000E3FC00284AD06268530803EB4003B3FBC1
:102AF000F2F39BB2A3F110014FF6EF7291423FD86F
:102B000023F00F02C3F3420313432268D360002073
:102B10001CE0FFF7DBFCE4E7FFF774F8E1E74FF4B4
:102B20000040E0E71E4802E0FFF7BEFC60B36368C8
:102B300000EB5300B0FBF3F080B2A0F110024FF6AF
:102B4000EF739A4222D82368D860002000232366BE
:102B50006366BDE8D888FFF7B9FCE7E7FFF752F8EE
:102B6000E4E74FF40040E2E70120EFE70120EDE762
:102B70000120EBE70120E9E70120E7E70020E5E796
:102B80000120E3E70120E1E70020DFE70120DDE7A6
:102B9000F369FFEF0080004000380140004400402E
:102BA0000024F400FFFC0F00436A13F0010F06D06D
:102BB0000268536823F40033816A0B435360436A0D
:102BC00013F0020F06D00268536823F48033C16A01
:102BD0000B435360436A13F0040F06D00268536836
:102BE00023F48023016B0B435360436A13F0080FF7
:102BF00006D00268536823F40043416B0B435360D3
:102C0000436A13F0100F06D00268936823F48053D0
:102C1000816B0B439360436A13F0200F06D0026868
:102C2000936823F40053C16B0B439360436A13F022
:102C3000400F0AD00268536823F48013016C0B43E1
:102C40005360036CB3F5801F0BD0436A13F0800F01
:102C500006D00268536823F40023816C0B43536051
:102C600070470268536823F4C003416C0B43536000
:102C7000EBE72DE9F04104460F4616469846069DBF
:102C80002368DB6937EA03030CBF01230023B34247
:102C90003AD1B5F1FF3FF3D0FEF754FAA0EB0800AC
:102CA000A8421FD8F5B123681A6812F0040FE7D0C4
:102CB000DA6912F4006FE3D04FF400621A622268FE
:102CC000136823F4D07313602268936823F0010320
:102CD000936020236367A367E367002384F8703061
:102CE000032012E02268136823F4D0731360226873
:102CF000936823F00103936020236367A367002395
:102D000084F87030032000E00020BDE8F0812DE958
:102D1000F04182B01E46436F202B55D104460D462C
:102D20009046002955D0002A55D090F87030012BDC
:102D300053D0012380F870300023C36721234367F9
:102D4000FEF700FA0746A4F85080A4F85280A36862
:102D5000B3F5805F05D04FF00008002384F8703091
:102D600013E0236913B14FF00008F6E7A8460025E9
:102D7000F3E738F8023B2268C3F308031385B4F87D
:102D80005230013B9BB2A4F85230B4F852309BB29F
:102D900073B100963B46002280212046FFF769FF71
:102DA000E8B9002DE5D0236815F8012B1A85E6E770
:102DB00000963B46002240212046FFF75AFF03467B
:102DC00078B92022626700E00223184602B0BDE80D
:102DD000F0810123F9E70123F7E70223F5E7032355
:102DE000F3E70323F1E730B583B004460023C3675C
:102DF000FEF7A8F9054623681B6813F0080F0CD1ED
:102E000023681B6813F0040F15D120236367A367A1
:102E1000002084F8700003B030BD6FF07E43009353
:102E2000034600224FF400112046FFF722FF00283E
:102E3000E6D00320EFE76FF07E4300932B4600229D
:102E40004FF480012046FFF714FF0028DDD0032057
:102E5000E1E768B310B50446436F03B32423636707
:102E60002268136823F0010313602046FFF76AFD10
:102E7000012813D0636ABBB92268536823F49043D6
:102E800053602268936823F02A03936022681368D2
:102E900043F0010313602046FFF7A5FF10BD80F843
:102EA0007030FEF785F8D9E72046FFF77DFEE3E7AF
:102EB00001207047DFF834D0FEF7DEF8002103E090
:102EC0000B4B5B58435004310A480B4B42189A4253
:102ED000F6D30A4A02E0002342F8043B084B9A4228
:102EE000F9D300F017F8FDF781FFFEE7000001209D
:102EF0001032000800000020700000207000002048
:102F00008C010020FEE70000014B1868704700BFED
:102F10000C00002070B50D4E0D4CA41BA410002514
:102F2000A54209D10B4E0C4C00F010F9A41BA410C3
:102F30000025A54205D170BD56F8253098470135CA
:102F4000EEE756F8253098470135F2E700320008E1
:102F5000003200080032000804320008024B01462B
:102F6000186800F06DB800BF0C000020024B01464D
:102F7000186800F017B800BF0C00002010B5431E01
:102F80000A44914200D110BD11F8014B03F8014FE2
:102F9000F7E702440346934200D1704703F8011B50
:102FA000F9E7000038B50546002945D051F8043C42
:102FB0000C1F002BB8BFE41800F0C6F81F4A1368B6
:102FC000104633B9636014602846BDE8384000F00D
:102FD000BCB8A3420CD921686218934204BF1A6896
:102FE0005B68636004BF521822600460ECE713461C
:102FF0005A680AB1A242FAD919685818A0420BD1EE
:1030000020680144581882421960DDD11068526866
:103010005A6001441960D7E702D90C232B60D3E72B
:10302000206821188A4204BF11685268626004BF98
:10303000091821605C60C7E738BD00BF9800002018
:1030400070B5CD1C25F0030508350C2D38BF0C25B7
:10305000002D064601DBA94203D90C233360002072
:1030600070BD00F071F8214A1468214691B9204CD6
:1030700023681BB9304600F03DF8206029463046F1
:1030800000F038F8431C24D10C233360304600F0A4
:103090005CF8E4E70B685B1B18D40B2B0FD90B60B3
:1030A000CD50CC18304600F050F804F10B00231D31
:1030B00020F00700C31AD3D05A42E250D0E78C4226
:1030C0004B6816BF636013600C46EBE70C4649681B
:1030D000CCE7C41C24F00304A04205D0211A3046DA
:1030E00000F008F80130CFD02560DBE79800002021
:1030F0009C00002038B5064C002305460846236096
:10310000FDF79CFF431C02D1236803B12B6038BD3F
:1031100088010020034611F8012B03F8012B002A37
:10312000F9D1704710B56AB10139841810F8013B24
:1031300011F8012F934203D1A04201D0002BF5D109
:10314000981A10BD1046FCE770477047F8B500BFED
:10315000F8BC08BC9E467047F8B500BFF8BC08BC78
:083160009E46704700000000CC
:1031680041414141404040404006D0060606060520
:10317800A4A4A400A0860100400D0300801A060044
:1031880000350C0040420F0080841E0000093D00FD
:1031980000127A000024F40000366E010048E801AD
:1031A800006CDC02000000000000000001020304C3
:1031B80006070809000000000102030468616A00AC
:1031C8006275700066676800486F7764792070617F
:1031D80072746E65722C204920686F706520796F53
:1031E8007520617265207377656C6C0000000000C3
:0831F80008D0FF7F0100000078
:08320000B50100080000000008
:08320800910100080000000024
:1032100000093D0001000000100000001000002027
:10322000000000000000000000000000000000009E
:10323000000000000000000000000000000000008E
:10324000000000000000000000000000000000007E
:10325000000000000000000000000000000000006E
:10326000000000000000000000000000000000005E
:10327000000000000000000000000000000000004E
:0400000508002EB50C
:00000001FF
