:020000040800F2
:100000000000012049300008D50F0008D70F000874
:10001000D90F0008DB0F0008DD0F0008000000000A
:10002000000000000000000000000000DF0F0008DA
:10003000E10F000800000000E30F0008E50F0008D2
:10004000993000089930000899300008993000086C
:10005000993000089930000899300008993000085C
:10006000993000089930000899300008993000084C
:10007000993000089930000899300008993000083C
:10008000993000089930000899300008993000082C
:10009000993000089930000899300008993000081C
:1000A000993000089930000899300008993000080C
:1000B000993000080000000000000000993000089E
:1000C000993000080000000000000000993000088E
:1000D000000000009930000899300008000000007E
:1000E000ED0F00089930000800000000000000003B
:1000F0000000000000000000000000000000000000
:10010000000000000000000000000000993000081E
:10011000000000000000000099300008993000083D
:10012000993000089930000899300008993000088B
:1001300099300008000000000000000000000000EE
:10014000993000089930000899300008993000086B
:10015000993000089930000899300008993000085B
:10016000993000089930000899300008000000001C
:1001700099300008993000080000000000000000DD
:1001800099300008993000089930000800000000FC
:1001900010B5054C237833B9044B13B10448AFF3C1
:1001A00000800123237010BD10000020000000001B
:1001B0004031000808B5034B1BB103490348AFF3B6
:1001C000008008BD0000000014000020403100083D
:1001D00053B94AB9002908BF00281CBF4FF0FF31AE
:1001E0004FF0FF3000F072B9ADF1080C6DE904CEAC
:1001F00000F006F8DDF804E0DDE9022304B0704702
:100200002DE9F047089E04468846002B4BD18A42D0
:10021000154667D9B2FA82F24AB1C2F1200701FA53
:1002200002F320FA07F7954047EA030894404FEAA3
:10023000154E230CB8FBFEF71FFA85FC0EFB178842
:1002400043EA084307FB0CF1994209D9EB1807F17F
:10025000FF3080F01B81994240F21881023F2B440D
:100260005B1AA4B2B3FBFEF00EFB103344EA034466
:1002700000FB0CFCA44509D92C1900F1FF3380F0D8
:100280000781A44540F2048102382C4440EA07402B
:10029000A4EB0C0400271EB1D4400023C6E90043A0
:1002A0003946BDE8F0878B4209D9002E00F0EB807B
:1002B0000027C6E9000138463946BDE8F087B3FAA1
:1002C00083F7002F47D18B4202D3824200F2FA809B
:1002D000841A61EB030301209846002EE0D0C6E9A2
:1002E0000048DDE702B9FFDEB2FA82F2002A40F0F0
:1002F0008F80491B4FEA154E1FFA85F80127B1FB85
:10030000FEFC230C0EFB1C1143EA014308FB0CF11D
:10031000994207D9EB180CF1FF3002D2994200F252
:10032000CD808446591AA3B2B1FBFEF00EFB101427
:1003300043EA044408FB00F8A04507D92C1900F152
:10034000FF3302D2A04500F2B6801846A4EB0804A1
:1003500040EA0C409FE7C7F1200CBB4022FA0CFE9C
:100360004EEA030E01FA07F420FA0CF521FA0CF319
:100370004FEA1E482543B3FBF8F92C0C08FB193350
:100380001FFA8EFA44EA034309FB0AF49C4202FA7C
:1003900007F200FA07F10BD91EEB030309F1FF3056
:1003A00080F087809C4240F28480A9F10209734466
:1003B0001B1BADB2B3FBF8F008FB103345EA034456
:1003C00000FB0AFAA24508D91EEB040400F1FF3332
:1003D0006BD2A24569D90238744440EA0940A0FBB7
:1003E0000289A4EB0A044C45C2464B4654D351D073
:1003F000002E69D0B1EB0A0564EB030404FA0CFC8F
:10040000FD40FC404CEA0505C6E90054002747E7DB
:10041000C2F1200320FA03F7954001FA02F021FA15
:1004200003F34FEA154E3843010CB3FBFEF71FFAF6
:1004300085F80EFB173341EA034107FB08F38B42B3
:1004400004FA02F407D9691807F1FF3C2FD28B4256
:100450002DD9023F2944CB1A81B2B3FBFEF00EFB2B
:10046000103341EA034100FB08F38B4207D96918B6
:1004700000F1FF3C17D28B4215D902382944C91A22
:1004800040EA07473BE73746304609E70746E7E6D5
:100490001846FBE64145ABD2B8EB020A69EB0E0207
:1004A00001381346A4E76046E9E7184695E7674632
:1004B000D1E781467CE702382C4447E7ACF1020CD7
:1004C0002B442FE7384608E73746E9E6704700BF78
:1004D00038B5054600240C4B1B78A34211DD04EB14
:1004E00044029300032209491944284602F015FEEC
:1004F00008B10134EFE704EB4404A30003481844B7
:1005000000E0002038BD00BF270100202C000020A3
:100510002DE9F04184B000262FE02346BA1B013AB2
:100520009A4229DD194A03EB430081001144CD882A
:100530005C1C04EB440081000A44D2889542ECD94B
:10054000DFF848C00D4665440DF1040E95E807003C
:100550008EE807004FEA430808EB03018A00624473
:1005600007CA85E8070043449A000CEB02039EE8A3
:10057000070083E80700D0E70136054B1F78B74234
:1005800001DD0023CAE704B0BDE8F0812C000020A3
:100590002701002010B40E4B1C88844214D3002382
:1005A0000C49097899420CDD03EB430291000A4A99
:1005B0000A44D288824201D80133F1E7121A90B27C
:1005C00003E0221A90B200E000205DF8044B70476F
:1005D00024010020270100202C0000200378DB09E3
:1005E0000B70037803F07F030370704790F90030BD
:1005F0000A7843EAC21303707047042800D8FEE764
:100600007047000010B582B0114C030A237060706F
:100610000A2000F05DFD0F4B19780F4B18684FF062
:10062000FF33009302232246490001F075F80B4B7B
:10063000187040B9084B1B6893F84130DBB2202B8F
:10064000F8D102B010BD0120FFF7D7FFF2E700BFDD
:100650002C0100202601002020010020280100207C
:1006600000B585B0FFF7CEFF0E4B197849000E4B51
:1006700018684FF0FF33009301230DF10F02194367
:1006800001F008F9094B187038B9052000F020FD79
:100690009DF80F0005B05DF804FB0120FFF7ADFFEA
:1006A000F3E700BF260100202001002028010020E0
:1006B00030B583B00C461546FFF7A4FF052000F0C7
:1006C00007FD0B4B197849000A4B18684FF0FF33B0
:1006D00000932B46224641F0010101F0DBF8064B66
:1006E000187008B903B030BD0120FFF786FFF9E7A5
:1006F00026010020200100202801002084B010B530
:100700008AB00CAC84E80F002122002101A802F07D
:10071000F4FC00240FE0202201A92046FFF7C8FFC7
:100720006423202201A90CA802F0BBFB0A2000F0E0
:10073000CFFC2034A4B2044B1B88A342EBD80AB0F0
:10074000BDE8104004B070472401002010B500241B
:100750000BE004EB44029300E0000130082205495D
:10076000194480B2FFF7A4FF0134034B1B78A34266
:10077000EFDC10BD2C0000202701002008B5084B3D
:100780001860084B1980084B1A700020FFF768FFAB
:10079000064B1870FFF7DAFFFFF7BAFE08BD00BF7F
:1007A0002001002024010020260100202701002034
:1007B00010B582B0114C030A23706070A17005203F
:1007C00000F086FC0E4B19780E4B18684FF0FF3383
:1007D000009303232246490000F09EFF0A4B187045
:1007E00040B9084B1B6893F84130DBB2202BF8D19D
:1007F00002B010BD0120FFF700FFF2E72C0100203E
:1008000026010020200100202801002070B584B0BE
:1008100005460C461646052000F05AFC0E4B19788A
:100820000E4B18684FF0FF33029301960095022398
:100830002246490001F0ECF8094B187040B9074B0B
:100840001B6893F84130DBB2202BF8D104B070BDA7
:100850000120FFF7D2FEF2E7260100202001002050
:10086000280100202DE9F04180460F464B09013355
:100870005B019BB28E18B6B2013EB6B20D4615E0D2
:10088000DCB2EBB2E41AE4B2C01BA4B222462946A1
:100890004044FFF7BBFF052000F01AFC2544ADB231
:1008A0006B0901335B019BB2AE4208D92846721B2B
:1008B000591B8A42E4DAD4B20134E4B2E4E7BDE879
:1008C000F081000070B584B00646194B18780138E5
:1008D000C000013008220DEB020180B2FFF7E8FEF4
:1008E000002500E00135124B1978A94217DDEC0014
:1008F0000134A4B2032201A92046FFF7D9FE032246
:10090000314601A802F009FC0028EBD1082221465B
:100910000DEB0200FFF7A6FF054B1D78E2E701395A
:10092000C9B219700020FFF743FF04B070BD00BFCB
:100930002701002038B5002413E05D1C174903EBA4
:1009400043039A008B1805EB450082000A4407CA4E
:1009500083E807002B46124A12789A42EDDC013CEC
:1009600001340F4B1B78A34216DD04EB44039A00BD
:100970000A4B13449B68002BF2D1084B134493F9A4
:100980000330002BECDB04EB4402930003481844D3
:10099000FFF798FF2346DEE738BD00BF2C0000209C
:1009A0002701002070B582B0064600250F4B1B784A
:1009B000AB4216DDEC00A4B2601C032201A980B298
:1009C000FFF776FE0322314601A802F0A6FB08B12C
:1009D0000135EBE7211D89B20522F01CFFF742FF2C
:1009E00002E00420FFF709FE02B070BD27010020DD
:1009F000F8B5274B1E78002E46D0264BDB88A13B4E
:100A00000746834242DA00233146721E9A421ADDBB
:100A10005D1C204A05EB4504A1001144B1F806C055
:100A2000590001EB030E4FEA8E04A6461444E488F5
:100A3000724491886218ACEB02022B469742E3DCC9
:100A4000601880B221E0134D7400A619B3002B4446
:100A5000DE88114B1B889B1B21448C002544A988F0
:100A60000B4498420BDC0B4953009C18A000044631
:100A70000844C08821448B88184480B205E00320D4
:100A8000FFF7BBFD002000E0A120F8BDA120FCE79E
:100A9000270100202C0000202401002038B5054645
:100AA0008088FFF7A5FFE8800C4C21780131C9B29E
:100AB00021700020FFF77CFE2478142C0AD8611ED8
:100AC000C9000131082289B22846FFF7CBFEFFF7A3
:100AD0001FFD38BD0220FFF790FDF0E72701002041
:100AE0002DE9F04784B007460D4616468DF80730CD
:100AF0001046FFF7EDFC04469DF90730002B29DB7B
:100B000024B10DF10F01E01CFFF768FD9DF83030B6
:100B100013B101238DF8303004B3A688AE423FD024
:100B2000E088FFF737FD864247D80CA90DF1070092
:100B3000FFF75CFD9DF80730E370A580A7602046B5
:100B4000FFF730FFA288E188A068FFF78BFE04B0B2
:100B5000BDE8F0877F238DF80730D1E7214B93F86C
:100B600000A0DFF884904FEA4A0808EB0A039C00D3
:100B70004C443146204602F0C8FA0CA90DF107009A
:100B8000FFF734FD9DF80730E370A580A76020468D
:100B9000FFF784FFA288E188A068FFF763FED6E72D
:100BA000E2789DF807309A42BAD19DF80F209DF85F
:100BB00030309A4208D1A760C9E73046FFF718FFE6
:100BC000E080FFF7A5FCB0E70CA90DF10700FFF7E7
:100BD0000DFD9DF80730E370A7602046FFF7E2FEA9
:100BE000B5E700BF270100202C000020F0B589B038
:100BF000002403940494059406940794314BDA6C12
:100C000042F00402DA64DA6C02F004020092009A04
:100C1000DA6C42F00102DA64DA6C02F0010201924D
:100C2000019ADA6C42F00202DA64DB6C03F0020330
:100C30000293029B244F22464FF48041384600F035
:100C400085FB224E22460921304600F07FFB2246DA
:100C50004FF480714FF0904000F078FB4FF48043E8
:100C60000393012504950594069403A9384600F0E2
:100C7000ADFA0923039304950594069403A930461D
:100C800000F0A4FA4FF4807303930495059406943E
:100C900003A94FF0904000F099FA4FF400630393DA
:100CA0000B4B0493059403A94FF0904000F08EFA8B
:100CB00022462146282000F031FA282000F062FA6E
:100CC00009B0F0BD001002400008004800040048D0
:100CD0000000111038B50D4C0D4B23600D4B6360B7
:100CE0000025A5600123E36025616561A561E561DB
:100CF0002562204600F0B2FC2946204600F05AFF4B
:100D00002946204600F084FF38BD00BF3001002096
:100D1000005C0040FF8C403008B50948094B036077
:100D20004FF4E133436000238360C36003610C220E
:100D300042618361C3610362436202F054F908BDFA
:100D40007C0100200038014010B5ACB02422002105
:100D50001CA802F0D2F90024169417941894199440
:100D60001A945422214601A802F0C7F910231B93BC
:100D70000122219260232393022325932692279216
:100D800028222892072229922A932B931BA801F04C
:100D90005DF80F23169303231793189419941A944C
:100DA000042116A801F098FB40F201130193099465
:100DB0000D9401A801F01CFD4FF4007000F05CFFE1
:100DC0002CB010BD30B5A5B000F060F9FFF7BCFF46
:100DD000FFF70CFFFFF77EFFFFF79EFF50224FF457
:100DE0007A611E48FFF7CAFC1D4B1B68ADF88C30BA
:100DF0001B0C8DF88E301CAC1A4D0FCD0FC495E82E
:100E0000070084E80700002400940223164A1C21EE
:100E10001CA8FFF765FE00940123144A032123A8B0
:100E2000FFF75EFEFFF786FD114B1B78002BFBD012
:100E3000104C702204F11001684602F053F994E856
:100E40000F00FFF75BFC0022094B1A704FF4807112
:100E50004FF0904000F07AFAE6E700BF3001002042
:100E600058310008AC310008A4310008A83100084E
:100E70001C0100207C010020B0F5006F00D07047FD
:100E800008B501224FF480714FF0904000F05EFAF7
:100E9000014B01221A7008BD1C01002082B00A4BD0
:100EA0001A6E42F001021A661A6E02F001020092F6
:100EB000009A9A6D42F080529A659B6D03F08053C0
:100EC0000193019B02B07047001002402DE9F041F0
:100ED00088B0002303930493059306930793026855
:100EE0001F4B9A4202D008B0BDE8F0811D4CE36C64
:100EF00043F00103E364E36C03F001030093009B00
:100F0000E36C43F00203E364E36C03F00203019338
:100F1000019B802303934FF01208CDF81080012726
:100F20000597032606960425079503A94FF09040E0
:100F300000F04CF910230393CDF810800597069626
:100F4000079503A9084800F041F9A36D43F4000395
:100F5000A365A36D03F400030293029BC3E700BFE4
:100F6000005C0040001002400004004800B589B059
:100F70000023039304930593069307930268144B8D
:100F80009A4202D009B05DF804FB03F558431A6E8B
:100F900042F480421A661A6E02F480420192019A6B
:100FA000DA6C42F00102DA64DB6C03F001030293B5
:100FB000029B4FF4C063039302230493032306931D
:100FC0000723079303A94FF0904000F0FFF8D9E7FB
:100FD000003801407047FEE7FEE7FEE7FEE7704796
:100FE0007047704708B500F061F808BD08B54FF4C8
:100FF000006000F0B1F908BD0F49D1F8883043F422
:101000007003C1F888300D4B1A6842F001021A6073
:10101000002098601A6822F0A85222F410221A6068
:101020004FF48052DA601A6822F480221A609861C4
:101030004FF000638B60704700ED00E0001002404D
:10104000104B1B780BB90120704710B504464FF4C4
:101050007A70B0FBF3F30C4A1068B0FBF3F000F0C9
:101060009FF868B90F2C01D901200AE0002221461F
:101070004FF0FF3000F052F8024B5C60002000E0BF
:10108000012010BD040000200000002010B5032046
:1010900000F032F80020FFF7D3FF10B10124204602
:1010A00010BD0446FFF7FAFEF9E70000034B1B787A
:1010B000034A11680B441360704700BF040000200E
:1010C000FC010020014B1868704700BFFC010020A4
:1010D00038B50446FFF7F6FF0546B4F1FF3F02D0EE
:1010E000044B1B781C44FFF7EDFF401BA042FAD3D2
:1010F00038BD00BF04000020074AD36823F4E06332
:101100001B041B0C000200F4E060184340F0BF60B9
:1011100040F40030D060704700ED00E030B4174B71
:10112000DB68C3F30223C3F10704042C28BF0424A3
:101130001D1D062D18D9033B4FF0FF3505FA04F4A9
:1011400021EA0401994005FA03F322EA0303194353
:1011500000280BDB0901C9B200F1604000F56140D5
:1011600080F8001330BC70470023E5E700F00F0063
:101170000901C9B2024B1954F4E700BF00ED00E0C9
:1011800014ED00E0002807DB00F01F0240090123F6
:101190009340024A42F82030704700BF00E100E06F
:1011A0000138B0F1807F0AD2064B5860064AF02120
:1011B00082F823100020986007221A6070470120EF
:1011C000704700BF10E000E000ED00E0F0B583B034
:1011D000002396E086685F000325BD4026EA0506E9
:1011E000CD68BD4035438560466826EA04064D68F3
:1011F000C5F300149C4034434460C5685F00032479
:10120000BC40E44325408E68BE402E43C6604D6816
:10121000022D01D0122D13D1DE08083650F826E039
:1012200003F007054FEA850C0F2505FA0CF52EEAA9
:10123000050E0D6905FA0CF545EA0E0540F8265035
:1012400005682C404D6805F00305BD402C43046043
:101250004C6814F0805F53D0384C256E45F0010582
:101260002566246E04F001040194019C9D08AE1CC7
:10127000334C54F8267003F00304A6000F24B44046
:1012800027EA0407B0F1904F51D02E4CA04250D025
:1012900004F58064A04248D00724B4403C430235A2
:1012A000274E46F82540284C2568D44304EA050615
:1012B0004F6817F4803F01D042EA0506224D2E60A8
:1012C0006D6804EA05064F6817F4003F01D042EA52
:1012D00005061D4D6E60AD6804EA05064F6817F4FB
:1012E000801F01D042EA0506174DAE60ED682C4024
:1012F0004E6816F4001F01D042EA0504124AD46079
:1013000001330A6832FA03F415D001249C402240CC
:10131000F6D04D686E1E012E7FF65CAF112D3FF4A6
:1013200059AF122D7FF469AF54E70224B5E70024CA
:10133000B3E70124B1E703B0F0BD00BF00100240E5
:101340000000014000040048000401400AB9816225
:10135000704781617047000008B5054B5B69034227
:1013600000D108BD024B5861FFF786FDF9E700BFC9
:101370000004014003689A6912F0020F01D00022B4
:101380009A6203689A6912F0010F03D19A6942F0D8
:1013900001029A61704770B4039E05686868740D15
:1013A00004F4806444F07F7444F4583444F47F744B
:1013B00044F0030420EA0400C1F3090141EA0241B8
:1013C000194331430143696070BC704770B50446EE
:1013D0000D46164603689B6913F0100F1CD0236856
:1013E0009A6912F0200F19D1B5F1FF3FF7D0FFF73E
:1013F00069FE801BA84201D8002DF0D1636C43F038
:1014000020036364202384F84130002384F84230B1
:1014100084F84030012020E000201EE01022DA6134
:1014200023682025DD612046FFF7A4FF226853686A
:1014300023F0FF7323F48B3323F4FF7323F00103B2
:101440005360636C43F00403636484F841500023E9
:1014500084F8423084F84030012070BD70B50446F5
:101460000D46164623689B6913F0020F1DD13246C4
:1014700029462046FFF7AAFFC8B9B5F1FF3FF1D0D2
:10148000FFF720FE801BA84201D8002DEAD1636C33
:1014900043F020036364202384F84130002384F860
:1014A000423084F84030012000E0002070BD01206F
:1014B000FCE7F8B505460F4616461C462B689B69A7
:1014C00037EA03030CBF01230023B34218D1B4F160
:1014D000FF3FF3D0FFF7F6FD069BC01AA04201D8EC
:1014E000002CEBD16B6C43F020036B64202385F858
:1014F0004130002385F8423085F84030012000E07B
:101500000020F8BD70B582B0044616461D46184B43
:1015100000934FF08073EAB2FFF73DFF079A0699F8
:101520002046FFF79BFFE8B9012D0ED12368F6B2E4
:101530009E62079B0093069B002280212046FFF7B6
:10154000B8FF034678B101230DE02368320A9A629E
:10155000079A06992046FFF781FF38B92368F6B24B
:101560009E62E6E70123184602B070BD0123FAE748
:101570000020008070B505460C4616462B689B6916
:1015800013F0200F1AD1324621462846FFF71EFFDE
:10159000B0B9FFF797FD801BA04201D8002CEDD118
:1015A0006B6C43F020036B64202385F841300023EB
:1015B00085F8423085F84030012070BD0020FCE7FE
:1015C0000120FAE770B504460D46164623689B696C
:1015D00013F0040F3ED1324629462046FFF7F6FEAF
:1015E0000146002838D123689A6912F0200F13D1E0
:1015F000FFF768FD801BA84201D8002DE6D1636C7F
:1016000043F020036364202384F84130002384F8EE
:1016100040300121084670BD9A6912F0040F02D0D3
:10162000228D002AF6D12022DA6121684B6823F04E
:10163000FF7323F48B3323F4FF7323F001034B6018
:101640000023636484F8412084F8423084F84030F9
:101650000121DFE70021DDE70121DBE7002859D088
:1016600010B5044690F84130002B43D0242384F871
:1016700041302268136823F0010313606368226815
:1016800023F0706313612268936823F4004393602E
:10169000E368012B33D0A368226843F404439360CA
:1016A000E368022B31D02268536843F0007343F49F
:1016B000004353602268D36823F40043D360236956
:1016C00062691343A169226843EA0123D360E36995
:1016D000216A22680B4313602268136843F00103F8
:1016E000136000206064202384F84130206384F874
:1016F000420010BD80F84030FFF7E8FBB6E7A36872
:10170000226843F400439360CAE723684FF4006201
:101710005A60C8E7012070472DE9F04383B090F884
:101720004150EDB2202D40F0A48090F84040012CB3
:1017300000F0A480984617460E4604464FF0010973
:1017400080F84090FFF7BEFC0546009019234A46FA
:101750004FF400412046FFF7ACFE002840F0908097
:10176000212384F84130102384F84230002363643D
:101770006762A4F82A806363638D9BB2FF2B0AD94A
:10178000FF222285424B00934FF080733146204662
:10179000FFF701FE18E0628D92B222853C4B009368
:1017A0004FF00073D2B231462046FFF7F4FD0BE054
:1017B000628D92B22285002300934FF00073D2B263
:1017C00031462046FFF7E7FD638D9BB2002B33D0F7
:1017D0002A460A992046FFF741FE002852D1626A44
:1017E000236812789A62636A01336362638D013BF6
:1017F0009BB26385238D013B9BB22385628D92B2A0
:10180000002AE1D0002BDFD100950A9B0022802125
:101810002046FFF74EFE002836D1638D9BB2FF2B8A
:10182000C6D9FF222285002300934FF080733146F2
:101830002046FFF7B0FDC7E72A460A992046FFF782
:1018400099FE034610BB22682021D16120684268BE
:1018500022F0FF7222F48B3222F4FF7222F0010296
:10186000426084F84110002284F8422084F840202D
:1018700000E00223184603B0BDE8F0830223F9E735
:101880000123F7E70123F5E70123F3E70123F1E75C
:10189000002000802DE9F04383B090F84150EDB274
:1018A000202D40F0A48090F84040012C00F0A4804E
:1018B000984617460E4604464FF0010980F84090BE
:1018C000FFF700FC0546009019234A464FF40041FB
:1018D0002046FFF7EEFD002840F09080222384F898
:1018E0004130102384F84230002363646762A4F817
:1018F0002A806363638D9BB2FF2B0AD9FF22228566
:10190000424B00934FF0807331462046FFF743FD72
:1019100018E0628D92B222853C4B00934FF0007329
:10192000D2B231462046FFF736FD0BE0628D92B20F
:101930002285002300934FF00073D2B23146204637
:10194000FFF729FD638D9BB2002B33D02A460A99FD
:101950002046FFF737FE002852D123685A6A636A8F
:101960001A70636A01336362238D013B9BB2238546
:10197000628D013A92B26285628D92B2002AE1D004
:10198000002BDFD100950A9B002280212046FFF723
:1019900090FD002836D1638D9BB2FF2BC6D9FF2264
:1019A0002285002300934FF0807331462046FFF7D5
:1019B000F2FCC7E72A460A992046FFF7DBFD0346FB
:1019C00010BB22682021D1612068426822F0FF729A
:1019D00022F48B3222F4FF7222F00102426084F87A
:1019E0004110002284F8422084F8402000E00223C5
:1019F000184603B0BDE8F0830223F9E70123F7E7B7
:101A00000123F5E70123F3E70123F1E70024008038
:101A10002DE9F04782B0BDF82C7090F84150EDB23E
:101A2000202D40F0BA800A9CDCB1D7B190F840403C
:101A3000012C00F0B780984691460D4604464FF0C1
:101A4000010A80F840A0FFF73DFB064600901923ED
:101A500052464FF400412046FFF72BFD30B10123E1
:101A60009CE04FF400734364012397E0212384F842
:101A70004130402384F84230002363640A9A626252
:101A80006785636301960C9B009343464A4629464B
:101A90002046FFF737FD70B9638D9BB2FF2B0FD93E
:101AA000FF222285002300934FF0807329462046B1
:101AB000FFF771FC21E0002384F8403053466DE0CD
:101AC000628D92B22285002300934FF00073D2B250
:101AD00029462046FFF75FFC0FE0628D92B2228517
:101AE000002300934FF00073D2B229462046FFF73F
:101AF00052FC638D9BB2002B32D032460C992046AB
:101B0000FFF7ACFC00284FD1626A236812789A6212
:101B1000636A01336362638D013B9BB26385238DEE
:101B2000013B9BB22385628D92B2002AE1D0002B4B
:101B3000DFD100960C9B002280212046FFF7B9FCE4
:101B4000A0BB638D9BB2FF2BC7D9FF222285002348
:101B500000934FF0807329462046FFF71CFCC8E72E
:101B600032460C992046FFF705FD034600BB22686C
:101B70002021D1612068426822F0FF7222F48B326A
:101B800022F4FF7222F00102426084F84110002228
:101B900084F8422084F8402000E00223184602B076
:101BA000BDE8F0870223F9E70123F7E70123F5E712
:101BB0000123F3E790F84130DBB2202B24D190F8D9
:101BC0004030012B22D0012380F84030242380F8BC
:101BD00041300268136823F0010313600268136840
:101BE00023F480531360026813681943116002687C
:101BF000136843F001031360202380F84130002371
:101C000080F8403018467047022070470220704725
:101C100090F84130DBB2202B22D190F84030012BDC
:101C200020D0012380F84030242380F8413002681E
:101C3000136823F0010313600268136823F47063D0
:101C400043EA012111600268136843F00103136045
:101C5000202380F84130002380F840301846704738
:101C60000220704702207047024B186800F4C060E1
:101C7000704700BF00700040B0F5007F0FD01F4BD1
:101C80001B6803F4C063B3F5806F34D01B4A13683C
:101C900023F4C06343F48063136000207047174B44
:101CA0001B6803F4C063B3F5007F22D0134A1368A6
:101CB00023F4C06343F400731360114B1A6832239A
:101CC00003FB02F30F4AA2FB03239B0C013300E04A
:101CD000013B0A4A526912F4806F01D0002BF7D100
:101CE000064B5B6913F4806F01D10020704703201D
:101CF0007047002070470020704700BF0070004010
:101D00000000002083DE1B4330B583B00546204B26
:101D10009B6D13F0805F0BD0FFF7A6FFB0F5007F3F
:101D200017D0802D1FD82DD0702D2DD000211BE075
:101D3000174CA36D43F08053A365A36D03F080534C
:101D40000193019BFFF790FFA36D23F08053A365E0
:101D5000E4E7802D03D9A02D03D9022104E000215E
:101D600002E0012100E003210A4A136823F007037F
:101D70000B431360136803F007038B4206D0012066
:101D800003B030BD0221EFE70121EDE70020F7E7C6
:101D90000010024000200240284A9368D26802F0F6
:101DA000030213F00C030AD00C2B06D0042B1FD017
:101DB000082B20D00020024610E0012AF6D11F4A4D
:101DC000126812F0080F0CD11C4AD2F89420C2F30A
:101DD00003221B4951F8222043B100200C2B0DD0C7
:101DE0007047164A1268C2F30312F2E71046F5E78D
:101DF00014480022F2E714480022EFE70F4BDB689B
:101E000003F00303022B15D0032B15D00B4BD8681E
:101E1000C0F302100130D968C1F3062102FB01F2C0
:101E2000B2FBF0F2D868C0F3416001304000B2FB71
:101E3000F0F0D5E7034AE9E7034AE7E7001002407C
:101E40005C3100080024F40000127A00002800F041
:101E50002783F0B583B00446AF4B9D6805F00C05B1
:101E6000DE6806F00306036813F0100F5BD0E5B1DF
:101E70000C2D18D0A369002B00F0BC80A64A136873
:101E800043F001031360FFF71DF90746A24B1B68DF
:101E900013F0020F40F09B80FFF714F9C01B0228DB
:101EA000F4D9032308E3012EE4D19B4B1B6813F004
:101EB000020F03D0A369002B00F0F582206A964B35
:101EC0001B6813F0080F5CD0934B1B6803F0F00302
:101ED00098425DD8904B1A6842F008021A601A685E
:101EE00022F0F002216A0A431A605A6822F47F4203
:101EF000E16942EA01225A60002D61D0FFF74CFFF0
:101F0000854B9B68C3F30313844AD35C03F01F0320
:101F1000D840834B1860834B1868FFF791F803464D
:101F2000002840F0C982236813F0010F00F081807F
:101F3000082D75D00C2D71D06368B3F5803F00F08B
:101F40009780B3F5A02F00F09980734B1A6822F4A4
:101F500080321A601A6822F480221A606368002BAB
:101F600000F09980FFF7AEF807466B4B1B6813F43F
:101F7000003F5ED1FFF7A6F8C01B6428F5D9032304
:101F80009AE2654BD3F894301B0903F0F0039FE706
:101F9000FFF7BAFE002840F088825F4B1A6842F0D3
:101FA00008021A601A6822F0F002216A0A431A60D5
:101FB0005A6822F47F42E16942EA01225A609DE7B1
:101FC000206AFFF7A1FE002898D0012374E2524B4B
:101FD0001A6842F008021A601A6822F0F002216AB8
:101FE0000A431A605A6822F47F42E16942EA0122F8
:101FF0005A6098E7484A136823F001031360FFF71B
:1020000061F80746444B1B6813F0020F8BD0FFF7B3
:1020100059F8C01B0228F5D903234DE2032E8BD1BA
:102020003D4B1B6813F4003F03D06368002B00F0A6
:102030003E82236813F0020F4FD0042D3CD00C2DAC
:1020400038D0E368002B78D0334A136843F48073A8
:102050001360FFF737F806462F4B1B6813F4806FA9
:1020600062D1FFF72FF8801B0228F5D9032323E262
:10207000294A136843F4803313606FE703F1804308
:10208000A3F53C331A6842F480221A601A6842F4BD
:1020900080321A6062E7FFF715F807461E4B1B688F
:1020A00013F4003FC5D0FFF70DF8C01B6428F5D925
:1020B000032301E2022EC4D1174B1B6813F4806F77
:1020C00003D0E368002B00F0F481134A536823F037
:1020D000FE43216943EA01635360236813F0080F4C
:1020E00056D06369002B3CD00B4AD2F8943043F0B1
:1020F0000103C2F89430FEF7E5FF0646064BD3F81D
:10210000943013F0020F43D1FEF7DCFF801B02284E
:10211000F4D90323D0E100BF001002408C31000845
:102120000000002008000020B04A536823F0FE435E
:10213000216943EA01635360CFE7AC4A136823F493
:1021400080731360FEF7BEFF0646A84B1B6813F4AE
:10215000806FC2D0FEF7B6FF801B0228F5D903239B
:10216000AAE1A24AD2F8943023F00103C2F89430D5
:10217000FEF7A8FF06469D4BD3F8943013F0020FEC
:1021800006D0FEF79FFF801B0228F4D9032393E1BA
:10219000236813F0040F7AD0944B9B6D13F0805F8B
:1021A0000BD1924B9A6D42F080529A659B6D03F071
:1021B00080530193019B012600E000268C4B1B6895
:1021C00013F4807F26D0A368012B37D0052B3DD098
:1021D000864BD3F8902022F00102C3F89020D3F868
:1021E000902022F00402C3F89020A368002B3BD07B
:1021F000FEF768FF07467D4BD3F8903013F0020FCF
:1022000044D1FEF75FFFC01B41F288339842F2D9F8
:10221000032351E1764A136843F480731360FEF799
:1022200051FF0746724B1B6813F4807FCBD1FEF73A
:1022300049FFC01B0228F5D903233DE16B4AD2F8C0
:10224000903043F00103C2F89030CEE7674BD3F8EB
:10225000902042F00402C3F89020D3F8902042F07E
:102260000102C3F89020C0E7FEF72CFF07465F4B42
:10227000D3F8903013F0020F08D0FEF723FFC01BF5
:1022800041F288339842F2D9032315E1E6B9236875
:1022900013F0200F35D0636AE3B1544AD2F8983076
:1022A00043F00103C2F89830FEF70CFF06464F4B8F
:1022B000D3F8983013F0020F23D1FEF703FF801BF1
:1022C0000228F4D90323F7E0484A936D23F08053A2
:1022D0009365DCE7454AD2F8983023F00103C2F851
:1022E0009830FEF7EFFE0646404BD3F8983013F0D7
:1022F000020F06D0FEF7E6FE801B0228F4D9032366
:10230000DAE0A36A002B00F0D680022B27D00C2D38
:1023100000F0DB80354B1A6822F080721A601B686F
:1023200013F0006F04D1314AD36823F00303D36064
:102330002E4AD36823F0887323F48033D360FEF7EA
:10234000C1FE0446294B1B6813F0007F00F0A680F5
:10235000FEF7B8FE001B0228F4D90323ACE0234BA0
:10236000DB6803F00301E26A914209D00C2D00F012
:10237000A6801E4B1B6813F0806F3BD001239BE0AF
:1023800003F07002216B0139B2EB011FEED103F4AF
:10239000FE42616BB2EB012FE8D103F07842A16BF2
:1023A000B2EBC16FE2D103F4C001E26B5208013A13
:1023B000B1EB425FDAD103F0C063226C5208013AFC
:1023C000B3EB426FD2D1094B1B6813F0007F78D179
:1023D000064B1A6842F080721A60DA6842F0807226
:1023E000DA60FEF76FFE044651E000BF00100240C5
:1023F00000700040364A136823F080731360FEF7C4
:1024000061FE0546324B1B6813F0007F06D0FEF7D5
:1024100059FE401B0228F5D903234DE02C4AD3680E
:102420002C491940E36A206B013843EA0013606BC2
:1024300043EA0023E06B4008013843EA4053206C34
:102440004008013843EA4063A06B43EAC0630B4392
:10245000D360136843F080731360D36843F08073D4
:10246000D360FEF72FFE0446194B1B6813F0007F64
:1024700006D1FEF727FE001B0228F5D903231BE037
:10248000002319E0FEF71EFE001B02281BD8104B8C
:102490001B6813F0007FF5D000230DE000230BE054
:1024A000012318467047012306E0012304E00123BD
:1024B00002E0012300E00023184603B0F0BD012331
:1024C000FAE70023F8E70323F6E70123F4E700BF68
:1024D000001002408C809D01002800F09B8070B5A8
:1024E00004464E4B1B6803F007038B420CD24B4A49
:1024F000136823F007030B431360136803F007030B
:102500008B4201D0012070BD0D46236813F0010FEE
:1025100039D06368032B09D0022B26D063BB404A15
:10252000126812F0020F06D10120ECE73C4A126853
:1025300012F0007F70D03A498A6822F003021343F8
:102540008B60FEF7BFFD0646354B9B6803F00C031E
:102550006268B3EB820F16D0FEF7B4FD801B41F228
:1025600088339842F0D90320CDE72D4A126812F43F
:10257000003FE0D10120C6E7294A126812F4806FBB
:10258000D9D10120BFE7236813F0020F06D0244AF7
:10259000936823F0F003A1680B4393601F4B1B6803
:1025A00003F00703AB420CD91C4A136823F007035E
:1025B0002B431360136803F00703AB4201D00120E3
:1025C000A1E7236813F0040F06D0154A936823F49B
:1025D000E063E1680B439360236813F0080F07D0B2
:1025E0000F4A936823F46053216943EAC10393605F
:1025F000FFF7D2FB0A4B9B68C3F30313094AD35C72
:1026000003F01F03D840084B1860084B1868FEF70A
:1026100017FD78E701207047012074E70020024091
:10262000001002408C31000800000020080000204B
:10263000014B1868704700BF0000002008B5FFF785
:10264000F7FF054B9B68C3F30223044AD35C03F0F6
:102650001F03D84008BD00BF001002409C31000895
:1026600008B5FFF7E5FF054B9B68C3F3C223044A97
:10267000D35C03F01F03D84008BD00BF0010024028
:102680009C310008F8B5594BDB6813F0030F18D0E4
:10269000564BDB6803F003030268934202D0012526
:1026A0002846F8BD002A00F09F80504BDB68C3F33A
:1026B000021301334268934201D00125F0E700255F
:1026C0001AE00368022B58D0032B5DD0012B01D0F8
:1026D00001250FE0454A126812F0020F60D0434D09
:1026E000EA6822F073024468013C43EA041313438E
:1026F000EB600025002DD3D10F4604463B4A1368FA
:1027000023F080631360FEF7DDFC0646374B1B6841
:1027100013F0006F05D0FEF7D5FC801B0228F5D919
:102720000325002DBCD1002F3CD130490B6923F08B
:10273000784323F4FE43A068E268D20642EA00220E
:1027400013430B61294A136843F080631360FEF75B
:10275000B9FC0646254B1B6813F0006F05D1FEF748
:10276000B1FC801B0228F5D90325002D98D11F4A02
:102770001369A1690B43136192E71C4A126812F4B2
:10278000806FACD10125B5E7184A126812F4003FFA
:10279000A5D1164A126812F4802FA0D10125A9E70D
:1027A0000125A7E7012F0FD01048026922F0C0626F
:1027B00022F4FE42A16863695B08013B5B0643EAC1
:1027C000012313430361BDE70848026922F4C002F4
:1027D00022F4FE42A16823695B08013B5B0543EAE2
:1027E000012313430361ADE7012559E700100240BF
:1027F0002DE9F04182B00446036813F4006F26D03F
:10280000C36BB3F5000F06D0B3F5400F1DD09BB1DD
:10281000012637461DE0AE4AD36843F48033D360C7
:102820000027AB4AD2F8883023F44003E16B0B4316
:10283000C2F8883000260CE000210430FFF722FFA8
:1028400007460028EDD0064603E00027E9E700260A
:102850003746236813F4003F6BD09D4B9B6D13F0FC
:10286000805F4CD19A4B9A6D42F080529A659B6D75
:1028700003F080530193019B4FF00108954A1368C0
:1028800043F480731360FEF71DFC0546914B1B68F3
:1028900013F4807F05D1FEF715FC401B0228F5D903
:1028A0000327002F40D18A4BD3F8903013F44073A4
:1028B00015D0226D9A4212D0854AD2F8903023F476
:1028C0004073D2F8901041F48031C2F89010D2F8E1
:1028D000901021F48031C2F89010C2F8903013F0BB
:1028E000010F0FD1002F40F0C980794AD2F8903003
:1028F00023F44073216D0B43C2F8903015E04FF084
:102900000008BBE7FEF7DEFB0546714BD3F89030BD
:1029100013F0020FE6D1FEF7D5FB401B41F28833DE
:102920009842F2D90327DDE73E46B8F1000F40F0A8
:10293000A780236813F0010F08D0654AD2F88830C9
:1029400023F00303216A0B43C2F88830236813F095
:10295000020F08D05E4AD2F8883023F00C03616A77
:102960000B43C2F88830236813F0200F08D0584A70
:10297000D2F8883023F44063A16A0B43C2F8883050
:10298000236813F4007F08D0514AD2F8883023F42A
:102990004023616B0B43C2F88830236813F4806FC7
:1029A00008D04B4AD2F8883023F44013A16B0B4374
:1029B000C2F88830236813F0400F08D0444AD2F898
:1029C000883023F44053E16A0B43C2F8883023680F
:1029D00013F4807F08D03E4AD2F8883023F4403385
:1029E000216B0B43C2F88830236813F4005F0FD0CB
:1029F000374AD2F8883023F04063216C0B43C2F889
:102A00008830236CB3F1006F40D0B3F1806F42D0B7
:102A1000236813F4802F0FD02D4AD2F8883023F08A
:102A20004063616C0B43C2F88830636CB3F1006F94
:102A300039D0B3F1806F3BD0236813F4804F0CD0B2
:102A4000234AD2F8883023F04053A16C0B43C2F8DC
:102A50008830A36CB3F1805F32D0236813F4004F49
:102A600008D01B4AD2F8883023F08043E16C0B4336
:102A7000C2F88830304602B0BDE8F0813E4654E7E7
:102A8000134A936D23F08053936552E7D36843F460
:102A90008013D360BCE70121201DFFF7F3FD002860
:102AA000B6D00646B4E7D36843F48013D360C3E7D7
:102AB0000121201DFFF7E6FD0028BDD00646BBE73B
:102AC0000221201DFFF7DEFD0028C6D00646C4E720
:102AD00000100240007000402DE9D848044601680B
:102AE00083680269134342691343C2691343086848
:102AF0008C4A024013430B602268536823F440530E
:102B0000E1680B435360A1692268874B9A4201D068
:102B1000236A1943936823F430630B43936023685B
:102B2000824A93421CD0824A93422DD07E4A9342DD
:102B300043D010227C498B425ED0E369B3F5004F4D
:102B400000F08C80082A00F2E780DFE812F0B7007E
:102B5000CE00B500E500D100E500E500E500D400B9
:102B600002F55842D2F8882002F00302032A09D85D
:102B7000DFE802F002043C060122DBE70422D9E789
:102B80000822D7E71022D5E702F5E632D2F88820EE
:102B900002F00C020C2A0ED8DFE802F0070D0D0D32
:102BA000090D0D0D2A0D0D0D0B000022C2E70422A8
:102BB000C0E70822BEE71022BCE702F5C832D2F80F
:102BC000882002F44062B2F5806F0BD007D9B2F5CD
:102BD000006F0FD0B2F5406F06D10822AAE71AB9EC
:102BE0000022A7E70422A5E71022A3E70222A1E71B
:102BF00002229FE702229DE7082A7FD8DFE802F041
:102C0000087E107E0D7E7E7E05004FF4004008E0B9
:102C1000FFF714FD28B9002062E0FFF7BDF8F9E7DF
:102C20004448626802EB4203834269D8B0EB023F3A
:102C300068D80023070E0602500816EB000B47F178
:102C4000000C58466146FDF7C3FAA0F540723A4BB6
:102C50009A4259D82368D860002041E0082A55D804
:102C6000DFE802F00721055424545454270031486A
:102C700003E0FFF7E3FC00284AD06268530803EB47
:102C80004003B3FBF2F39BB2A3F110014FF6EF72D6
:102C900091423FD823F00F02C3F34203134322684B
:102CA000D36000201CE0FFF7DBFCE4E7FFF774F8DB
:102CB000E1E74FF40040E0E71E4802E0FFF7BEFC0A
:102CC00060B3636800EB5300B0FBF3F080B2A0F197
:102CD00010024FF6EF739A4222D82368D860002082
:102CE000002323666366BDE8D888FFF7B9FCE7E7F1
:102CF000FFF752F8E4E74FF40040E2E70120EFE786
:102D00000120EDE70120EBE70120E9E70120E7E7FB
:102D10000020E5E70120E3E70120E1E70020DFE70D
:102D20000120DDE7F369FFEF00800040003801403B
:102D3000004400400024F400FFFC0F00436A13F03D
:102D4000010F06D00268536823F40033816A0B43F5
:102D50005360436A13F0020F06D00268536823F4ED
:102D60008033C16A0B435360436A13F0040F06D0EB
:102D70000268536823F48023016B0B435360436A5A
:102D800013F0080F06D00268536823F40043416B28
:102D90000B435360436A13F0100F06D00268936828
:102DA00023F48053816B0B439360436A13F0200F2D
:102DB00006D00268936823F40053C16B0B43936001
:102DC000436A13F0400F0AD00268536823F480135B
:102DD000016C0B435360036CB3F5801F0BD0436A47
:102DE00013F0800F06D00268536823F40023816C2F
:102DF0000B43536070470268536823F4C003416C6F
:102E00000B435360EBE72DE9F04104460F461646AD
:102E10009846069D2368DB6937EA03030CBF01234C
:102E20000023B3423AD1B5F1FF3FF3D0FEF74AF9A0
:102E3000A0EB0800A8421FD8F5B123681A6812F069
:102E4000040FE7D0DA6912F4006FE3D04FF40062A8
:102E50001A622268136823F4D0731360226893689F
:102E600023F00103936020236367A367E3670023D4
:102E700084F87030032012E02268136823F4D073C2
:102E800013602268936823F0010393602023636733
:102E9000A367002384F87030032000E00020BDE821
:102EA000F0812DE9F04182B01E46436F202B55D1B1
:102EB00004460D469046002955D0002A55D090F87A
:102EC0007030012B53D0012380F870300023C3678A
:102ED00021234367FEF7F6F80746A4F85080A4F8CC
:102EE0005280A368B3F5805F05D04FF0000800233F
:102EF00084F8703013E0236913B14FF00008F6E74F
:102F0000A8460025F3E738F8023B2268C3F308031C
:102F10001385B4F85230013B9BB2A4F85230B4F898
:102F200052309BB273B100963B460022802120466E
:102F3000FFF769FFE8B9002DE5D0236815F8012BEC
:102F40001A85E6E700963B46002240212046FFF71F
:102F50005AFF034678B92022626700E00223184630
:102F600002B0BDE8F0810123F9E70123F7E702236E
:102F7000F5E70323F3E70323F1E730B583B0044615
:102F80000023C367FEF79EF8054623681B6813F00D
:102F9000080F0CD123681B6813F0040F15D12023F0
:102FA0006367A367002084F8700003B030BD6FF042
:102FB0007E430093034600224FF400112046FFF7A2
:102FC00022FF0028E6D00320EFE76FF07E43009356
:102FD0002B4600224FF480012046FFF714FF002803
:102FE000DDD00320E1E768B310B50446436F03B3B7
:102FF000242363672268136823F0010313602046CB
:10300000FFF76AFD012813D0636ABBB922685368D1
:1030100023F4904353602268936823F02A0393605B
:103020002268136843F0010313602046FFF7A5FFF1
:1030300010BD80F87030FDF799FFD9E72046FFF703
:103040007DFEE3E701207047DFF834D0FDF7D4FFC1
:10305000002103E00B4B5B58435004310A480B4BF3
:1030600042189A42F6D30A4A02E0002342F8043B8F
:10307000084B9A42F9D300F011F8FDF7A3FEFEE7E2
:1030800000000120E03100080000002010000020B6
:103090001000002000020020FEE7000070B50D4E79
:1030A0000D4CA41BA4100025A54209D10B4E0C4CBD
:1030B00000F046F8A41BA4100025A54205D170BD60
:1030C00056F8253098470135EEE756F825309847F1
:1030D0000135F2E7D0310008D0310008D0310008C6
:1030E000D431000810B5431E0A44914200D110BDEE
:1030F00011F8014B03F8014FF7E7024403469342EE
:1031000000D1704703F8011BF9E7034611F8012BC2
:1031100003F8012B002AF9D1704710B56AB10139C3
:10312000841810F8013B11F8012F934203D1A042FB
:1031300001D0002BF5D1981A10BD1046FCE7000015
:10314000F8B500BFF8BC08BC9E467047F8B500BF94
:08315000F8BC08BC9E46704764
:10315800A4A4A400A0860100400D0300801A060064
:1031680000350C0040420F0080841E0000093D001D
:1031780000127A000024F40000366E010048E801CD
:10318800006CDC02000000000000000001020304E3
:1031980006070809000000000102030472616A00C2
:1031A80066676800546869732069732061207465D4
:1031B8007374206F6620616464726573736573004D
:0831C80038D0FF7F0100000078
:0831D000B50100080000000039
:0831D800910100080000000055
:1031E00000093D0001000000100000000000000088
:040000050800304976
:00000001FF
